{
  "contractName": "Pokemon",
  "abi": [
    {
      "inputs": [],
      "stateMutability": "nonpayable",
      "type": "constructor"
    },
    {
      "anonymous": false,
      "inputs": [
        {
          "indexed": true,
          "internalType": "address",
          "name": "owner",
          "type": "address"
        },
        {
          "indexed": true,
          "internalType": "address",
          "name": "approved",
          "type": "address"
        },
        {
          "indexed": true,
          "internalType": "uint256",
          "name": "tokenId",
          "type": "uint256"
        }
      ],
      "name": "Approval",
      "type": "event"
    },
    {
      "anonymous": false,
      "inputs": [
        {
          "indexed": true,
          "internalType": "address",
          "name": "owner",
          "type": "address"
        },
        {
          "indexed": true,
          "internalType": "address",
          "name": "operator",
          "type": "address"
        },
        {
          "indexed": false,
          "internalType": "bool",
          "name": "approved",
          "type": "bool"
        }
      ],
      "name": "ApprovalForAll",
      "type": "event"
    },
    {
      "anonymous": false,
      "inputs": [
        {
          "indexed": true,
          "internalType": "address",
          "name": "from",
          "type": "address"
        },
        {
          "indexed": true,
          "internalType": "address",
          "name": "to",
          "type": "address"
        },
        {
          "indexed": true,
          "internalType": "uint256",
          "name": "tokenId",
          "type": "uint256"
        }
      ],
      "name": "Transfer",
      "type": "event"
    },
    {
      "inputs": [
        {
          "internalType": "address",
          "name": "to",
          "type": "address"
        },
        {
          "internalType": "uint256",
          "name": "tokenId",
          "type": "uint256"
        }
      ],
      "name": "approve",
      "outputs": [],
      "stateMutability": "nonpayable",
      "type": "function"
    },
    {
      "inputs": [
        {
          "internalType": "address",
          "name": "owner",
          "type": "address"
        }
      ],
      "name": "balanceOf",
      "outputs": [
        {
          "internalType": "uint256",
          "name": "",
          "type": "uint256"
        }
      ],
      "stateMutability": "view",
      "type": "function",
      "constant": true
    },
    {
      "inputs": [
        {
          "internalType": "uint256",
          "name": "tokenId",
          "type": "uint256"
        }
      ],
      "name": "getApproved",
      "outputs": [
        {
          "internalType": "address",
          "name": "",
          "type": "address"
        }
      ],
      "stateMutability": "view",
      "type": "function",
      "constant": true
    },
    {
      "inputs": [
        {
          "internalType": "address",
          "name": "owner",
          "type": "address"
        },
        {
          "internalType": "address",
          "name": "operator",
          "type": "address"
        }
      ],
      "name": "isApprovedForAll",
      "outputs": [
        {
          "internalType": "bool",
          "name": "",
          "type": "bool"
        }
      ],
      "stateMutability": "view",
      "type": "function",
      "constant": true
    },
    {
      "inputs": [],
      "name": "name",
      "outputs": [
        {
          "internalType": "string",
          "name": "",
          "type": "string"
        }
      ],
      "stateMutability": "view",
      "type": "function",
      "constant": true
    },
    {
      "inputs": [
        {
          "internalType": "uint256",
          "name": "tokenId",
          "type": "uint256"
        }
      ],
      "name": "ownerOf",
      "outputs": [
        {
          "internalType": "address",
          "name": "",
          "type": "address"
        }
      ],
      "stateMutability": "view",
      "type": "function",
      "constant": true
    },
    {
      "inputs": [
        {
          "internalType": "address",
          "name": "from",
          "type": "address"
        },
        {
          "internalType": "address",
          "name": "to",
          "type": "address"
        },
        {
          "internalType": "uint256",
          "name": "tokenId",
          "type": "uint256"
        }
      ],
      "name": "safeTransferFrom",
      "outputs": [],
      "stateMutability": "nonpayable",
      "type": "function"
    },
    {
      "inputs": [
        {
          "internalType": "address",
          "name": "from",
          "type": "address"
        },
        {
          "internalType": "address",
          "name": "to",
          "type": "address"
        },
        {
          "internalType": "uint256",
          "name": "tokenId",
          "type": "uint256"
        },
        {
          "internalType": "bytes",
          "name": "_data",
          "type": "bytes"
        }
      ],
      "name": "safeTransferFrom",
      "outputs": [],
      "stateMutability": "nonpayable",
      "type": "function"
    },
    {
      "inputs": [
        {
          "internalType": "address",
          "name": "operator",
          "type": "address"
        },
        {
          "internalType": "bool",
          "name": "approved",
          "type": "bool"
        }
      ],
      "name": "setApprovalForAll",
      "outputs": [],
      "stateMutability": "nonpayable",
      "type": "function"
    },
    {
      "inputs": [],
      "name": "symbol",
      "outputs": [
        {
          "internalType": "string",
          "name": "",
          "type": "string"
        }
      ],
      "stateMutability": "view",
      "type": "function",
      "constant": true
    },
    {
      "inputs": [
        {
          "internalType": "uint256",
          "name": "index",
          "type": "uint256"
        }
      ],
      "name": "tokenByIndex",
      "outputs": [
        {
          "internalType": "uint256",
          "name": "",
          "type": "uint256"
        }
      ],
      "stateMutability": "view",
      "type": "function",
      "constant": true
    },
    {
      "inputs": [
        {
          "internalType": "address",
          "name": "owner",
          "type": "address"
        },
        {
          "internalType": "uint256",
          "name": "index",
          "type": "uint256"
        }
      ],
      "name": "tokenOfOwnerByIndex",
      "outputs": [
        {
          "internalType": "uint256",
          "name": "",
          "type": "uint256"
        }
      ],
      "stateMutability": "view",
      "type": "function",
      "constant": true
    },
    {
      "inputs": [],
      "name": "totalSupply",
      "outputs": [
        {
          "internalType": "uint256",
          "name": "",
          "type": "uint256"
        }
      ],
      "stateMutability": "view",
      "type": "function",
      "constant": true
    },
    {
      "inputs": [
        {
          "internalType": "address",
          "name": "from",
          "type": "address"
        },
        {
          "internalType": "address",
          "name": "to",
          "type": "address"
        },
        {
          "internalType": "uint256",
          "name": "tokenId",
          "type": "uint256"
        }
      ],
      "name": "transferFrom",
      "outputs": [],
      "stateMutability": "nonpayable",
      "type": "function"
    },
    {
      "inputs": [
        {
          "internalType": "address",
          "name": "_wallet",
          "type": "address"
        },
        {
          "internalType": "string",
          "name": "_tokenURI",
          "type": "string"
        }
      ],
      "name": "mint",
      "outputs": [
        {
          "internalType": "uint256",
          "name": "",
          "type": "uint256"
        }
      ],
      "stateMutability": "nonpayable",
      "type": "function"
    },
    {
      "inputs": [
        {
          "internalType": "bytes4",
          "name": "_interfaceId",
          "type": "bytes4"
        }
      ],
      "name": "supportsInterface",
      "outputs": [
        {
          "internalType": "bool",
          "name": "",
          "type": "bool"
        }
      ],
      "stateMutability": "view",
      "type": "function",
      "constant": true
    },
    {
      "inputs": [
        {
          "internalType": "uint256",
          "name": "_tokenId",
          "type": "uint256"
        }
      ],
      "name": "tokenURI",
      "outputs": [
        {
          "internalType": "string",
          "name": "",
          "type": "string"
        }
      ],
      "stateMutability": "view",
      "type": "function",
      "constant": true
    }
  ],
  "bytecode": "0x60806040523480156200001157600080fd5b506040518060400160405280600781526020017f506f6b656d6f6e000000000000000000000000000000000000000000000000008152506040518060400160405280600381526020017f504b4d0000000000000000000000000000000000000000000000000000000000815250816000908051906020019062000096929190620000b8565b508060019080519060200190620000af929190620000b8565b505050620001cd565b828054620000c69062000197565b90600052602060002090601f016020900481019282620000ea576000855562000136565b82601f106200010557805160ff191683800117855562000136565b8280016001018555821562000136579182015b828111156200013557825182559160200191906001019062000118565b5b50905062000145919062000149565b5090565b5b80821115620001645760008160009055506001016200014a565b5090565b7f4e487b7100000000000000000000000000000000000000000000000000000000600052602260045260246000fd5b60006002820490506001821680620001b057607f821691505b60208210811415620001c757620001c662000168565b5b50919050565b6133eb80620001dd6000396000f3fe608060405234801561001057600080fd5b506004361061010b5760003560e01c80634f6ccce7116100a2578063a22cb46511610071578063a22cb465146102de578063b88d4fde146102fa578063c87b56dd14610316578063d0def52114610346578063e985e9c5146103765761010b565b80634f6ccce7146102305780636352211e1461026057806370a082311461029057806395d89b41146102c05761010b565b806318160ddd116100de57806318160ddd146101aa57806323b872dd146101c85780632f745c59146101e457806342842e0e146102145761010b565b806301ffc9a71461011057806306fdde0314610140578063081812fc1461015e578063095ea7b31461018e575b600080fd5b61012a60048036038101906101259190611ffa565b6103a6565b6040516101379190612042565b60405180910390f35b6101486103b8565b60405161015591906120f6565b60405180910390f35b6101786004803603810190610173919061214e565b61044a565b60405161018591906121bc565b60405180910390f35b6101a860048036038101906101a39190612203565b6104cf565b005b6101b26105e7565b6040516101bf9190612252565b60405180910390f35b6101e260048036038101906101dd919061226d565b6105f4565b005b6101fe60048036038101906101f99190612203565b610654565b60405161020b9190612252565b60405180910390f35b61022e6004803603810190610229919061226d565b6106f9565b005b61024a6004803603810190610245919061214e565b610719565b6040516102579190612252565b60405180910390f35b61027a6004803603810190610275919061214e565b61078a565b60405161028791906121bc565b60405180910390f35b6102aa60048036038101906102a591906122c0565b61083c565b6040516102b79190612252565b60405180910390f35b6102c86108f4565b6040516102d591906120f6565b60405180910390f35b6102f860048036038101906102f39190612319565b610986565b005b610314600480360381019061030f919061248e565b61099c565b005b610330600480360381019061032b919061214e565b6109fe565b60405161033d91906120f6565b60405180910390f35b610360600480360381019061035b91906125b2565b610a10565b60405161036d9190612252565b60405180910390f35b610390600480360381019061038b919061260e565b610a47565b60405161039d9190612042565b60405180910390f35b60006103b182610adb565b9050919050565b6060600080546103c79061267d565b80601f01602080910402602001604051908101604052809291908181526020018280546103f39061267d565b80156104405780601f1061041557610100808354040283529160200191610440565b820191906000526020600020905b81548152906001019060200180831161042357829003601f168201915b5050505050905090565b600061045582610b55565b610494576040517f08c379a000000000000000000000000000000000000000000000000000000000815260040161048b90612721565b60405180910390fd5b6004600083815260200190815260200160002060009054906101000a900473ffffffffffffffffffffffffffffffffffffffff169050919050565b60006104da8261078a565b90508073ffffffffffffffffffffffffffffffffffffffff168373ffffffffffffffffffffffffffffffffffffffff16141561054b576040517f08c379a0000000000000000000000000000000000000000000000000000000008152600401610542906127b3565b60405180910390fd5b8073ffffffffffffffffffffffffffffffffffffffff1661056a610bc1565b73ffffffffffffffffffffffffffffffffffffffff161480610599575061059881610593610bc1565b610a47565b5b6105d8576040517f08c379a00000000000000000000000000000000000000000000000000000000081526004016105cf90612845565b60405180910390fd5b6105e28383610bc9565b505050565b6000600880549050905090565b6106056105ff610bc1565b82610c82565b610644576040517f08c379a000000000000000000000000000000000000000000000000000000000815260040161063b906128d7565b60405180910390fd5b61064f838383610d60565b505050565b600061065f8361083c565b82106106a0576040517f08c379a000000000000000000000000000000000000000000000000000000000815260040161069790612969565b60405180910390fd5b600660008473ffffffffffffffffffffffffffffffffffffffff1673ffffffffffffffffffffffffffffffffffffffff168152602001908152602001600020600083815260200190815260200160002054905092915050565b6107148383836040518060200160405280600081525061099c565b505050565b60006107236105e7565b8210610764576040517f08c379a000000000000000000000000000000000000000000000000000000000815260040161075b906129fb565b60405180910390fd5b6008828154811061077857610777612a1b565b5b90600052602060002001549050919050565b6000806002600084815260200190815260200160002060009054906101000a900473ffffffffffffffffffffffffffffffffffffffff169050600073ffffffffffffffffffffffffffffffffffffffff168173ffffffffffffffffffffffffffffffffffffffff161415610833576040517f08c379a000000000000000000000000000000000000000000000000000000000815260040161082a90612abc565b60405180910390fd5b80915050919050565b60008073ffffffffffffffffffffffffffffffffffffffff168273ffffffffffffffffffffffffffffffffffffffff1614156108ad576040517f08c379a00000000000000000000000000000000000000000000000000000000081526004016108a490612b4e565b60405180910390fd5b600360008373ffffffffffffffffffffffffffffffffffffffff1673ffffffffffffffffffffffffffffffffffffffff168152602001908152602001600020549050919050565b6060600180546109039061267d565b80601f016020809104026020016040519081016040528092919081815260200182805461092f9061267d565b801561097c5780601f106109515761010080835404028352916020019161097c565b820191906000526020600020905b81548152906001019060200180831161095f57829003601f168201915b5050505050905090565b610998610991610bc1565b8383610fbc565b5050565b6109ad6109a7610bc1565b83610c82565b6109ec576040517f08c379a00000000000000000000000000000000000000000000000000000000081526004016109e3906128d7565b60405180910390fd5b6109f884848484611129565b50505050565b6060610a0982611185565b9050919050565b600080610a1d600b6112d7565b9050610a2984826112e5565b610a338184611303565b610a3d600b611377565b8091505092915050565b6000600560008473ffffffffffffffffffffffffffffffffffffffff1673ffffffffffffffffffffffffffffffffffffffff16815260200190815260200160002060008373ffffffffffffffffffffffffffffffffffffffff1673ffffffffffffffffffffffffffffffffffffffff16815260200190815260200160002060009054906101000a900460ff16905092915050565b60007f780e9d63000000000000000000000000000000000000000000000000000000007bffffffffffffffffffffffffffffffffffffffffffffffffffffffff1916827bffffffffffffffffffffffffffffffffffffffffffffffffffffffff19161480610b4e5750610b4d8261138d565b5b9050919050565b60008073ffffffffffffffffffffffffffffffffffffffff166002600084815260200190815260200160002060009054906101000a900473ffffffffffffffffffffffffffffffffffffffff1673ffffffffffffffffffffffffffffffffffffffff1614159050919050565b600033905090565b816004600083815260200190815260200160002060006101000a81548173ffffffffffffffffffffffffffffffffffffffff021916908373ffffffffffffffffffffffffffffffffffffffff160217905550808273ffffffffffffffffffffffffffffffffffffffff16610c3c8361078a565b73ffffffffffffffffffffffffffffffffffffffff167f8c5be1e5ebec7d5bd14f71427d1e84f3dd0314c0f7b2291e5b200ac8c7c3b92560405160405180910390a45050565b6000610c8d82610b55565b610ccc576040517f08c379a0000000000000000000000000000000000000000000000000000000008152600401610cc390612be0565b60405180910390fd5b6000610cd78361078a565b90508073ffffffffffffffffffffffffffffffffffffffff168473ffffffffffffffffffffffffffffffffffffffff161480610d4657508373ffffffffffffffffffffffffffffffffffffffff16610d2e8461044a565b73ffffffffffffffffffffffffffffffffffffffff16145b80610d575750610d568185610a47565b5b91505092915050565b8273ffffffffffffffffffffffffffffffffffffffff16610d808261078a565b73ffffffffffffffffffffffffffffffffffffffff1614610dd6576040517f08c379a0000000000000000000000000000000000000000000000000000000008152600401610dcd90612c72565b60405180910390fd5b600073ffffffffffffffffffffffffffffffffffffffff168273ffffffffffffffffffffffffffffffffffffffff161415610e46576040517f08c379a0000000000000000000000000000000000000000000000000000000008152600401610e3d90612d04565b60405180910390fd5b610e5183838361146f565b610e5c600082610bc9565b6001600360008573ffffffffffffffffffffffffffffffffffffffff1673ffffffffffffffffffffffffffffffffffffffff1681526020019081526020016000206000828254610eac9190612d53565b925050819055506001600360008473ffffffffffffffffffffffffffffffffffffffff1673ffffffffffffffffffffffffffffffffffffffff1681526020019081526020016000206000828254610f039190612d87565b92505081905550816002600083815260200190815260200160002060006101000a81548173ffffffffffffffffffffffffffffffffffffffff021916908373ffffffffffffffffffffffffffffffffffffffff160217905550808273ffffffffffffffffffffffffffffffffffffffff168473ffffffffffffffffffffffffffffffffffffffff167fddf252ad1be2c89b69c2b068fc378daa952ba7f163c4a11628f55a4df523b3ef60405160405180910390a4505050565b8173ffffffffffffffffffffffffffffffffffffffff168373ffffffffffffffffffffffffffffffffffffffff16141561102b576040517f08c379a000000000000000000000000000000000000000000000000000000000815260040161102290612e29565b60405180910390fd5b80600560008573ffffffffffffffffffffffffffffffffffffffff1673ffffffffffffffffffffffffffffffffffffffff16815260200190815260200160002060008473ffffffffffffffffffffffffffffffffffffffff1673ffffffffffffffffffffffffffffffffffffffff16815260200190815260200160002060006101000a81548160ff0219169083151502179055508173ffffffffffffffffffffffffffffffffffffffff168373ffffffffffffffffffffffffffffffffffffffff167f17307eab39ab6107e8899845ad3d59bd9653f200f220920489ca2b5937696c318360405161111c9190612042565b60405180910390a3505050565b611134848484610d60565b6111408484848461147f565b61117f576040517f08c379a000000000000000000000000000000000000000000000000000000000815260040161117690612ebb565b60405180910390fd5b50505050565b606061119082610b55565b6111cf576040517f08c379a00000000000000000000000000000000000000000000000000000000081526004016111c690612f4d565b60405180910390fd5b6000600a600084815260200190815260200160002080546111ef9061267d565b80601f016020809104026020016040519081016040528092919081815260200182805461121b9061267d565b80156112685780601f1061123d57610100808354040283529160200191611268565b820191906000526020600020905b81548152906001019060200180831161124b57829003601f168201915b505050505090506000611279611607565b905060008151141561128f5781925050506112d2565b6000825111156112c45780826040516020016112ac929190612fa9565b604051602081830303815290604052925050506112d2565b6112cd8461161e565b925050505b919050565b600081600001549050919050565b6112ff8282604051806020016040528060008152506116c5565b5050565b61130c82610b55565b61134b576040517f08c379a00000000000000000000000000000000000000000000000000000000081526004016113429061303f565b60405180910390fd5b80600a60008481526020019081526020016000209080519060200190611372929190611eeb565b505050565b6001816000016000828254019250508190555050565b60007f80ac58cd000000000000000000000000000000000000000000000000000000007bffffffffffffffffffffffffffffffffffffffffffffffffffffffff1916827bffffffffffffffffffffffffffffffffffffffffffffffffffffffff1916148061145857507f5b5e139f000000000000000000000000000000000000000000000000000000007bffffffffffffffffffffffffffffffffffffffffffffffffffffffff1916827bffffffffffffffffffffffffffffffffffffffffffffffffffffffff1916145b80611468575061146782611720565b5b9050919050565b61147a83838361178a565b505050565b60006114a08473ffffffffffffffffffffffffffffffffffffffff1661189e565b156115fa578373ffffffffffffffffffffffffffffffffffffffff1663150b7a026114c9610bc1565b8786866040518563ffffffff1660e01b81526004016114eb94939291906130b4565b6020604051808303816000875af192505050801561152757506040513d601f19601f820116820180604052508101906115249190613115565b60015b6115aa573d8060008114611557576040519150601f19603f3d011682016040523d82523d6000602084013e61155c565b606091505b506000815114156115a2576040517f08c379a000000000000000000000000000000000000000000000000000000000815260040161159990612ebb565b60405180910390fd5b805181602001fd5b63150b7a0260e01b7bffffffffffffffffffffffffffffffffffffffffffffffffffffffff1916817bffffffffffffffffffffffffffffffffffffffffffffffffffffffff1916149150506115ff565b600190505b949350505050565b606060405180602001604052806000815250905090565b606061162982610b55565b611668576040517f08c379a000000000000000000000000000000000000000000000000000000000815260040161165f906131b4565b60405180910390fd5b6000611672611607565b9050600081511161169257604051806020016040528060008152506116bd565b8061169c846118b1565b6040516020016116ad929190612fa9565b6040516020818303038152906040525b915050919050565b6116cf8383611a12565b6116dc600084848461147f565b61171b576040517f08c379a000000000000000000000000000000000000000000000000000000000815260040161171290612ebb565b60405180910390fd5b505050565b60007f01ffc9a7000000000000000000000000000000000000000000000000000000007bffffffffffffffffffffffffffffffffffffffffffffffffffffffff1916827bffffffffffffffffffffffffffffffffffffffffffffffffffffffff1916149050919050565b611795838383611be0565b600073ffffffffffffffffffffffffffffffffffffffff168373ffffffffffffffffffffffffffffffffffffffff1614156117d8576117d381611be5565b611817565b8173ffffffffffffffffffffffffffffffffffffffff168373ffffffffffffffffffffffffffffffffffffffff1614611816576118158382611c2e565b5b5b600073ffffffffffffffffffffffffffffffffffffffff168273ffffffffffffffffffffffffffffffffffffffff16141561185a5761185581611d9b565b611899565b8273ffffffffffffffffffffffffffffffffffffffff168273ffffffffffffffffffffffffffffffffffffffff1614611898576118978282611e6c565b5b5b505050565b600080823b905060008111915050919050565b606060008214156118f9576040518060400160405280600181526020017f30000000000000000000000000000000000000000000000000000000000000008152509050611a0d565b600082905060005b6000821461192b578080611914906131d4565b915050600a82611924919061324c565b9150611901565b60008167ffffffffffffffff81111561194757611946612363565b5b6040519080825280601f01601f1916602001820160405280156119795781602001600182028036833780820191505090505b5090505b60008514611a06576001826119929190612d53565b9150600a856119a1919061327d565b60306119ad9190612d87565b60f81b8183815181106119c3576119c2612a1b565b5b60200101907effffffffffffffffffffffffffffffffffffffffffffffffffffffffffffff1916908160001a905350600a856119ff919061324c565b945061197d565b8093505050505b919050565b600073ffffffffffffffffffffffffffffffffffffffff168273ffffffffffffffffffffffffffffffffffffffff161415611a82576040517f08c379a0000000000000000000000000000000000000000000000000000000008152600401611a79906132fa565b60405180910390fd5b611a8b81610b55565b15611acb576040517f08c379a0000000000000000000000000000000000000000000000000000000008152600401611ac290613366565b60405180910390fd5b611ad76000838361146f565b6001600360008473ffffffffffffffffffffffffffffffffffffffff1673ffffffffffffffffffffffffffffffffffffffff1681526020019081526020016000206000828254611b279190612d87565b92505081905550816002600083815260200190815260200160002060006101000a81548173ffffffffffffffffffffffffffffffffffffffff021916908373ffffffffffffffffffffffffffffffffffffffff160217905550808273ffffffffffffffffffffffffffffffffffffffff16600073ffffffffffffffffffffffffffffffffffffffff167fddf252ad1be2c89b69c2b068fc378daa952ba7f163c4a11628f55a4df523b3ef60405160405180910390a45050565b505050565b6008805490506009600083815260200190815260200160002081905550600881908060018154018082558091505060019003906000526020600020016000909190919091505550565b60006001611c3b8461083c565b611c459190612d53565b9050600060076000848152602001908152602001600020549050818114611d2a576000600660008673ffffffffffffffffffffffffffffffffffffffff1673ffffffffffffffffffffffffffffffffffffffff168152602001908152602001600020600084815260200190815260200160002054905080600660008773ffffffffffffffffffffffffffffffffffffffff1673ffffffffffffffffffffffffffffffffffffffff168152602001908152602001600020600084815260200190815260200160002081905550816007600083815260200190815260200160002081905550505b6007600084815260200190815260200160002060009055600660008573ffffffffffffffffffffffffffffffffffffffff1673ffffffffffffffffffffffffffffffffffffffff16815260200190815260200160002060008381526020019081526020016000206000905550505050565b60006001600880549050611daf9190612d53565b9050600060096000848152602001908152602001600020549050600060088381548110611ddf57611dde612a1b565b5b906000526020600020015490508060088381548110611e0157611e00612a1b565b5b906000526020600020018190555081600960008381526020019081526020016000208190555060096000858152602001908152602001600020600090556008805480611e5057611e4f613386565b5b6001900381819060005260206000200160009055905550505050565b6000611e778361083c565b905081600660008573ffffffffffffffffffffffffffffffffffffffff1673ffffffffffffffffffffffffffffffffffffffff168152602001908152602001600020600083815260200190815260200160002081905550806007600084815260200190815260200160002081905550505050565b828054611ef79061267d565b90600052602060002090601f016020900481019282611f195760008555611f60565b82601f10611f3257805160ff1916838001178555611f60565b82800160010185558215611f60579182015b82811115611f5f578251825591602001919060010190611f44565b5b509050611f6d9190611f71565b5090565b5b80821115611f8a576000816000905550600101611f72565b5090565b6000604051905090565b600080fd5b600080fd5b60007fffffffff0000000000000000000000000000000000000000000000000000000082169050919050565b611fd781611fa2565b8114611fe257600080fd5b50565b600081359050611ff481611fce565b92915050565b6000602082840312156120105761200f611f98565b5b600061201e84828501611fe5565b91505092915050565b60008115159050919050565b61203c81612027565b82525050565b60006020820190506120576000830184612033565b92915050565b600081519050919050565b600082825260208201905092915050565b60005b8381101561209757808201518184015260208101905061207c565b838111156120a6576000848401525b50505050565b6000601f19601f8301169050919050565b60006120c88261205d565b6120d28185612068565b93506120e2818560208601612079565b6120eb816120ac565b840191505092915050565b6000602082019050818103600083015261211081846120bd565b905092915050565b6000819050919050565b61212b81612118565b811461213657600080fd5b50565b60008135905061214881612122565b92915050565b60006020828403121561216457612163611f98565b5b600061217284828501612139565b91505092915050565b600073ffffffffffffffffffffffffffffffffffffffff82169050919050565b60006121a68261217b565b9050919050565b6121b68161219b565b82525050565b60006020820190506121d160008301846121ad565b92915050565b6121e08161219b565b81146121eb57600080fd5b50565b6000813590506121fd816121d7565b92915050565b6000806040838503121561221a57612219611f98565b5b6000612228858286016121ee565b925050602061223985828601612139565b9150509250929050565b61224c81612118565b82525050565b60006020820190506122676000830184612243565b92915050565b60008060006060848603121561228657612285611f98565b5b6000612294868287016121ee565b93505060206122a5868287016121ee565b92505060406122b686828701612139565b9150509250925092565b6000602082840312156122d6576122d5611f98565b5b60006122e4848285016121ee565b91505092915050565b6122f681612027565b811461230157600080fd5b50565b600081359050612313816122ed565b92915050565b600080604083850312156123305761232f611f98565b5b600061233e858286016121ee565b925050602061234f85828601612304565b9150509250929050565b600080fd5b600080fd5b7f4e487b7100000000000000000000000000000000000000000000000000000000600052604160045260246000fd5b61239b826120ac565b810181811067ffffffffffffffff821117156123ba576123b9612363565b5b80604052505050565b60006123cd611f8e565b90506123d98282612392565b919050565b600067ffffffffffffffff8211156123f9576123f8612363565b5b612402826120ac565b9050602081019050919050565b82818337600083830152505050565b600061243161242c846123de565b6123c3565b90508281526020810184848401111561244d5761244c61235e565b5b61245884828561240f565b509392505050565b600082601f83011261247557612474612359565b5b813561248584826020860161241e565b91505092915050565b600080600080608085870312156124a8576124a7611f98565b5b60006124b6878288016121ee565b94505060206124c7878288016121ee565b93505060406124d887828801612139565b925050606085013567ffffffffffffffff8111156124f9576124f8611f9d565b5b61250587828801612460565b91505092959194509250565b600067ffffffffffffffff82111561252c5761252b612363565b5b612535826120ac565b9050602081019050919050565b600061255561255084612511565b6123c3565b9050828152602081018484840111156125715761257061235e565b5b61257c84828561240f565b509392505050565b600082601f83011261259957612598612359565b5b81356125a9848260208601612542565b91505092915050565b600080604083850312156125c9576125c8611f98565b5b60006125d7858286016121ee565b925050602083013567ffffffffffffffff8111156125f8576125f7611f9d565b5b61260485828601612584565b9150509250929050565b6000806040838503121561262557612624611f98565b5b6000612633858286016121ee565b9250506020612644858286016121ee565b9150509250929050565b7f4e487b7100000000000000000000000000000000000000000000000000000000600052602260045260246000fd5b6000600282049050600182168061269557607f821691505b602082108114156126a9576126a861264e565b5b50919050565b7f4552433732313a20617070726f76656420717565727920666f72206e6f6e657860008201527f697374656e7420746f6b656e0000000000000000000000000000000000000000602082015250565b600061270b602c83612068565b9150612716826126af565b604082019050919050565b6000602082019050818103600083015261273a816126fe565b9050919050565b7f4552433732313a20617070726f76616c20746f2063757272656e74206f776e6560008201527f7200000000000000000000000000000000000000000000000000000000000000602082015250565b600061279d602183612068565b91506127a882612741565b604082019050919050565b600060208201905081810360008301526127cc81612790565b9050919050565b7f4552433732313a20617070726f76652063616c6c6572206973206e6f74206f7760008201527f6e6572206e6f7220617070726f76656420666f7220616c6c0000000000000000602082015250565b600061282f603883612068565b915061283a826127d3565b604082019050919050565b6000602082019050818103600083015261285e81612822565b9050919050565b7f4552433732313a207472616e736665722063616c6c6572206973206e6f74206f60008201527f776e6572206e6f7220617070726f766564000000000000000000000000000000602082015250565b60006128c1603183612068565b91506128cc82612865565b604082019050919050565b600060208201905081810360008301526128f0816128b4565b9050919050565b7f455243373231456e756d657261626c653a206f776e657220696e646578206f7560008201527f74206f6620626f756e6473000000000000000000000000000000000000000000602082015250565b6000612953602b83612068565b915061295e826128f7565b604082019050919050565b6000602082019050818103600083015261298281612946565b9050919050565b7f455243373231456e756d657261626c653a20676c6f62616c20696e646578206f60008201527f7574206f6620626f756e64730000000000000000000000000000000000000000602082015250565b60006129e5602c83612068565b91506129f082612989565b604082019050919050565b60006020820190508181036000830152612a14816129d8565b9050919050565b7f4e487b7100000000000000000000000000000000000000000000000000000000600052603260045260246000fd5b7f4552433732313a206f776e657220717565727920666f72206e6f6e657869737460008201527f656e7420746f6b656e0000000000000000000000000000000000000000000000602082015250565b6000612aa6602983612068565b9150612ab182612a4a565b604082019050919050565b60006020820190508181036000830152612ad581612a99565b9050919050565b7f4552433732313a2062616c616e636520717565727920666f7220746865207a6560008201527f726f206164647265737300000000000000000000000000000000000000000000602082015250565b6000612b38602a83612068565b9150612b4382612adc565b604082019050919050565b60006020820190508181036000830152612b6781612b2b565b9050919050565b7f4552433732313a206f70657261746f7220717565727920666f72206e6f6e657860008201527f697374656e7420746f6b656e0000000000000000000000000000000000000000602082015250565b6000612bca602c83612068565b9150612bd582612b6e565b604082019050919050565b60006020820190508181036000830152612bf981612bbd565b9050919050565b7f4552433732313a207472616e73666572206f6620746f6b656e2074686174206960008201527f73206e6f74206f776e0000000000000000000000000000000000000000000000602082015250565b6000612c5c602983612068565b9150612c6782612c00565b604082019050919050565b60006020820190508181036000830152612c8b81612c4f565b9050919050565b7f4552433732313a207472616e7366657220746f20746865207a65726f2061646460008201527f7265737300000000000000000000000000000000000000000000000000000000602082015250565b6000612cee602483612068565b9150612cf982612c92565b604082019050919050565b60006020820190508181036000830152612d1d81612ce1565b9050919050565b7f4e487b7100000000000000000000000000000000000000000000000000000000600052601160045260246000fd5b6000612d5e82612118565b9150612d6983612118565b925082821015612d7c57612d7b612d24565b5b828203905092915050565b6000612d9282612118565b9150612d9d83612118565b9250827fffffffffffffffffffffffffffffffffffffffffffffffffffffffffffffffff03821115612dd257612dd1612d24565b5b828201905092915050565b7f4552433732313a20617070726f766520746f2063616c6c657200000000000000600082015250565b6000612e13601983612068565b9150612e1e82612ddd565b602082019050919050565b60006020820190508181036000830152612e4281612e06565b9050919050565b7f4552433732313a207472616e7366657220746f206e6f6e20455243373231526560008201527f63656976657220696d706c656d656e7465720000000000000000000000000000602082015250565b6000612ea5603283612068565b9150612eb082612e49565b604082019050919050565b60006020820190508181036000830152612ed481612e98565b9050919050565b7f45524337323155524953746f726167653a2055524920717565727920666f722060008201527f6e6f6e6578697374656e7420746f6b656e000000000000000000000000000000602082015250565b6000612f37603183612068565b9150612f4282612edb565b604082019050919050565b60006020820190508181036000830152612f6681612f2a565b9050919050565b600081905092915050565b6000612f838261205d565b612f8d8185612f6d565b9350612f9d818560208601612079565b80840191505092915050565b6000612fb58285612f78565b9150612fc18284612f78565b91508190509392505050565b7f45524337323155524953746f726167653a2055524920736574206f66206e6f6e60008201527f6578697374656e7420746f6b656e000000000000000000000000000000000000602082015250565b6000613029602e83612068565b915061303482612fcd565b604082019050919050565b600060208201905081810360008301526130588161301c565b9050919050565b600081519050919050565b600082825260208201905092915050565b60006130868261305f565b613090818561306a565b93506130a0818560208601612079565b6130a9816120ac565b840191505092915050565b60006080820190506130c960008301876121ad565b6130d660208301866121ad565b6130e36040830185612243565b81810360608301526130f5818461307b565b905095945050505050565b60008151905061310f81611fce565b92915050565b60006020828403121561312b5761312a611f98565b5b600061313984828501613100565b91505092915050565b7f4552433732314d657461646174613a2055524920717565727920666f72206e6f60008201527f6e6578697374656e7420746f6b656e0000000000000000000000000000000000602082015250565b600061319e602f83612068565b91506131a982613142565b604082019050919050565b600060208201905081810360008301526131cd81613191565b9050919050565b60006131df82612118565b91507fffffffffffffffffffffffffffffffffffffffffffffffffffffffffffffffff82141561321257613211612d24565b5b600182019050919050565b7f4e487b7100000000000000000000000000000000000000000000000000000000600052601260045260246000fd5b600061325782612118565b915061326283612118565b9250826132725761327161321d565b5b828204905092915050565b600061328882612118565b915061329383612118565b9250826132a3576132a261321d565b5b828206905092915050565b7f4552433732313a206d696e7420746f20746865207a65726f2061646472657373600082015250565b60006132e4602083612068565b91506132ef826132ae565b602082019050919050565b60006020820190508181036000830152613313816132d7565b9050919050565b7f4552433732313a20746f6b656e20616c7265616479206d696e74656400000000600082015250565b6000613350601c83612068565b915061335b8261331a565b602082019050919050565b6000602082019050818103600083015261337f81613343565b9050919050565b7f4e487b7100000000000000000000000000000000000000000000000000000000600052603160045260246000fdfea264697066735822122027ad415330719a679e2e6c53c806cf698cd918c930775b55a0aabbd1c2df128a64736f6c634300080a0033",
  "immutableReferences": {},
  "source": "// SPDX-License-Identifier: MIT\r\npragma solidity ^0.8.0;\r\n\r\nimport \"@openzeppelin/contracts/token/ERC721/extensions/ERC721URIStorage.sol\";\r\nimport \"@openzeppelin/contracts/token/ERC721/extensions/ERC721Enumerable.sol\";\r\nimport \"@openzeppelin/contracts/utils/Counters.sol\";\r\n\r\n\r\ncontract Pokemon is ERC721Enumerable, ERC721URIStorage {\r\n    using Counters for Counters.Counter;\r\n\r\n    Counters.Counter private _tokenIdCounter;\r\n\r\n    constructor() ERC721(\"Pokemon\", \"PKM\") {}\r\n\r\n    function mint(address _wallet, string memory _tokenURI) public returns(uint256) {\r\n        \r\n        uint256 tokenId = _tokenIdCounter.current();\r\n\r\n        _safeMint(_wallet, tokenId);\r\n\r\n        _setTokenURI(tokenId, _tokenURI);\r\n\r\n        _tokenIdCounter.increment();\r\n\r\n        return tokenId;\r\n    }\r\n\r\n    function _beforeTokenTransfer(address _from, address _to, uint256 _tokenId) internal override(ERC721, ERC721Enumerable) {\r\n        super._beforeTokenTransfer(_from, _to, _tokenId);\r\n    }\r\n\r\n    function supportsInterface(bytes4 _interfaceId) public view override(ERC721, ERC721Enumerable) returns (bool) {\r\n        return super.supportsInterface(_interfaceId);\r\n    }\r\n\r\n    function _burn(uint256 _tokenId) internal override(ERC721, ERC721URIStorage) {\r\n        super._burn(_tokenId);\r\n    }\r\n\r\n    function tokenURI(uint256 _tokenId) public view override(ERC721, ERC721URIStorage) returns (string memory) {\r\n        return super.tokenURI(_tokenId);\r\n    }\r\n}",
  "sourcePath": "C:\\Users\\Eric\\Development\\nft-projects\\pokemon-nft\\nft\\contracts\\Pokemon.sol",
  "compiler": {
    "name": "solc",
    "version": "0.8.10+commit.fc410830.Emscripten.clang"
  },
  "schemaVersion": "3.4.3",
  "updatedAt": "2021-12-12T17:07:44.301Z",
  "networkType": "ethereum",
  "devdoc": {
    "kind": "dev",
    "methods": {
      "approve(address,uint256)": {
        "details": "See {IERC721-approve}."
      },
      "balanceOf(address)": {
        "details": "See {IERC721-balanceOf}."
      },
      "getApproved(uint256)": {
        "details": "See {IERC721-getApproved}."
      },
      "isApprovedForAll(address,address)": {
        "details": "See {IERC721-isApprovedForAll}."
      },
      "name()": {
        "details": "See {IERC721Metadata-name}."
      },
      "ownerOf(uint256)": {
        "details": "See {IERC721-ownerOf}."
      },
      "safeTransferFrom(address,address,uint256)": {
        "details": "See {IERC721-safeTransferFrom}."
      },
      "safeTransferFrom(address,address,uint256,bytes)": {
        "details": "See {IERC721-safeTransferFrom}."
      },
      "setApprovalForAll(address,bool)": {
        "details": "See {IERC721-setApprovalForAll}."
      },
      "symbol()": {
        "details": "See {IERC721Metadata-symbol}."
      },
      "tokenByIndex(uint256)": {
        "details": "See {IERC721Enumerable-tokenByIndex}."
      },
      "tokenOfOwnerByIndex(address,uint256)": {
        "details": "See {IERC721Enumerable-tokenOfOwnerByIndex}."
      },
      "totalSupply()": {
        "details": "See {IERC721Enumerable-totalSupply}."
      },
      "transferFrom(address,address,uint256)": {
        "details": "See {IERC721-transferFrom}."
      }
    },
    "version": 1
  },
  "userdoc": {
    "kind": "user",
    "methods": {},
    "version": 1
  }
}